:020000040000FA
:06000000EFEF00F012001A
:020006000000F8
:08000800D9CFE6FFE1CFD9FFDB
:10001000020EE126DE6ADD6ADECF00F0DDCF01F000
:10002000FD0EDBCF02F0FE0EDBCF03F00250005CD2
:10003000035001580AE20A0EE66EC8EC00F0E552E1
:10004000DF2A010EE9E3DB2AE7D7020EE15C02E2D8
:10005000E16AE552E16EE552E7CFD9FF1200D9CF50
:10006000E6FFE1CFD9FF040EE126DE6ADD6ADECFCE
:1000700000F0DDCF01F0FD0EDBCF02F0FE0EDBCF96
:1000800003F00250005C035001581BE2020EDB6AD1
:10009000030EDB6A020EDBCF00F0030EDBCF01F0B4
:1000A000020E005C000E015807E20000020EDB2A7F
:1000B000030E01E3DB2AEED7DF2A010E01E3DB2A80
:1000C000D6D7040EE15C02E2E16AE552E16EE55248
:1000D000E7CFD9FF12008F0ED3147009D36E929020
:1000E00089908970010EE66EE66AB9DFE552E55245
:0200F000F8D73F
:0E00F200060EF66E000EF76E000EF86E0001A0
:100100000900F550656F0900F550666F03E16567FA
:1001100001D03DD00900F550606F0900F550616FC6
:100120000900F550626F09000900F550E96E0900F9
:10013000F550EA6E090009000900F550636F0900E7
:10014000F550646F09000900F6CF67F0F7CF68F04B
:10015000F8CF69F060C0F6FF61C0F7FF62C0F8FF3A
:100160000001635302E1645307E00900F550EE6EAD
:100170006307F8E26407F9D767C0F6FF68C0F7FFC6
:1001800069C0F8FF00016507000E665BBFD712006B
:10019000FF0EE350076EEF0E01D0F30EE76EE72E71
:1001A000CFEF00F00C0E066EE76AE72ED5EF00F0F9
:0E01B000062ED4EF00F0072ECDEF00F0120067
:0201BE00C00E71
:1001C000F36E00EE00F00E0E01D81200EA6002D0CD
:0E01D000EE6AFCD7F350E9601200EE6AFCD72D
:0201DE001DEE14
:1001E00000F02DEE00F0F86A059C79EC00F0FDECD3
:0A01F00000F06BEC00F0FBD71200EA
:0201FA001200F1
:013FF8002E9A
:013FFA00D8EE
:00000001FF
