:020000040000FA
:0600000007EF01F0120001
:020006000000F8
:08000800D9CFE6FFE1CFD9FFDB
:10001000FE0EDBCFE6FFE0EC00F0E552ADA2FED72E
:10002000E552E7CFD9FF1200D9CFE6FFE1CFD9FFE4
:10003000FD0EDBCFF6FFFE0EDBCFF7FF0800F5501D
:1000400011E0FD0EDBCFF6FFFE0EDBCFF7FF080061
:10005000F550E66ED9DFE552FD0EDB2AFE0EE8E331
:10006000DB2AE6D70A0EE66ECFDFE5520D0EE66E0E
:10007000CBDFE552E552E7CFD9FF12008F0ED31444
:100080007009D36E0C0EE66EE66AE66AA7EC00F025
:10009000E552E552E5522A0EE66E020EE66EC4DF28
:1000A000E552E5524F0EAC16AD9ACF0E9D16FFD716
:1000B000060EF66E000EF76E000EF86E00010900D7
:1000C000F550656F0900F550666F03E1656701D073
:1000D0003DD00900F550606F0900F550616F0900CF
:1000E000F550626F09000900F550E96E0900F550FE
:1000F000EA6E090009000900F550636F0900F55028
:10010000646F09000900F6CF67F0F7CF68F0F8CF09
:1001100069F060C0F6FF61C0F7FF62C0F8FF000140
:10012000635302E1645307E00900F550EE6E630784
:10013000F8E26407F9D767C0F6FF68C0F7FF69C047
:0E014000F8FF00016507000E665BBFD71200D6
:02014E00D9CF07
:10015000E6FFDACFE6FFE1CFD9FFE2CFDAFFAD6A03
:10016000AC6AFD0EDBB0AD88DBA202D0AD8CAC8CEE
:10017000DBB4AD8EDBA602D0AC8801D0AC8ADBB894
:10018000AD84DBBAAC86DBAC02D09D8A01D09D9AEF
:10019000DBAE02D09D8801D09D98FB0EDB50B06E87
:1001A000FC0EDBCF03F003C002F0036A02507F6E47
:1001B000AD8AAC8EE552E5CFDAFFE7CFD9FF12006A
:1001C000D9CFE6FFDACFE6FFE1CFD9FFE2CFDAFF02
:1001D000ADAC04D0AD9000016AB3AD80FD0EDB5034
:0E01E000AE6EE552E5CFDAFFE7CFD9FF120091
:0201EE00C00E41
:1001F000F36E00EE00F00E0E01D81200EA6002D09D
:0E020000EE6AFCD7F350E9601200EE6AFCD7FC
:02020E001DEEE3
:1002100000F02DEE00F0F86A019C58EC00F01EECA6
:0A02200001F03EEC00F0FBD71200E5
:06022A0050726F67726163
:0C0230006D20676F6573206865726500C3
:02023C001200AE
:013FF8002E9A
:013FFA00D8EE
:00000001FF
